:100000000C944B000C945D000C945D000C945D000E
:100010000C945D000C945D000C945D000C945D00EC
:100020000C945D000C945D000C945D000C945D00DC
:100030000C945D000C945D000C945D000C945D00CC
:100040000C945D000C945D000C945D000C945D00BC
:100050000C945D000C945D000C945D000C945D00AC
:100060000C945D000C945D00084AD73B3BCE016EBA
:1000700084BCBFFDC12F3D6C74319ABD56833DDAFF
:100080003D00C77F11BED9E4BB4C3E916BAAAABE0E
:10009000000000803F0011241FBECFEFD8E0DEBF7C
:1000A000CDBF21E0A0E0B1E001C01D92A830B207B1
:1000B000E1F70E94E0020C940F070C9400001092EC
:1000C000B90088E48093B800089594EA9093BC0046
:1000D0009091BC009923E4F79091B900987F9830F3
:1000E00091F48093BB0084E88093BC008091BC00B5
:1000F0008823E4F78091B900887F883131F080321D
:1001000031F482E0089580E0089581E0089583E06D
:10011000089584E98093BC008091BC0084FDFCCFED
:100120000895CF93C82F84EA8093BC008091BC00CF
:100130008823E4F78091B900887F8830A1F7C093C5
:10014000BB0084E88093BC008091BC008823E4F766
:100150008091B900887F883119F00E948900E3CF2F
:10016000CF9108958093BB0084E88093BC00809178
:10017000BC008823E4F78091B900887F883221F0A1
:10018000803321F481E0089580E0089582E00895AD
:1001900084EC8093BC008091BC008823E4F78091BC
:1001A000BB00089584E88093BC008091BC00882344
:1001B000E4F78091BB00089580ED0E9491008BE6EA
:1001C0000E94B20080E00E94B2000E94890080ED8F
:1001D0000E94910089E10E94B20087E00E94B20073
:1001E0000E94890080ED0E9491008AE10E94B20085
:1001F00080E00E94B2000E94890080ED0E94910080
:100200008BE10E94B20088E10E94B2000E94890046
:1002100080ED0E9491008CE10E94B20081E00E947A
:10022000B2000E94890008956F927F928F929F92F0
:10023000AF92BF92CF92DF92EF92FF920F931F93F4
:10024000CF93DF935C016B014A01390180ED0E947D
:1002500091008BE30E94B2000E94890081ED0E9410
:1002600065000E94C800C82FD0E0DC2FCC270E9478
:10027000C800C82BF501D183C0830E94C800C82FD5
:10028000D0E0DC2FCC270E94C800C82BF601D18318
:10029000C0830E94C800C82FD0E0DC2FCC270E946A
:1002A000C800C82BF401D183C0830E94C800C82FA6
:1002B000D0E0DC2FCC270E94C800C82BF301D183EB
:1002C000C0830E94C800C82FD0E0DC2FCC270E943A
:1002D000C800C82BF801D183C0830E94C800C82F72
:1002E000D0E0DC2FCC270E94D200C82BF701D183AD
:1002F000C0830E948900DF91CF911F910F91FF90E1
:10030000EF90DF90CF90BF90AF909F908F907F90B5
:100310006F9008952F923F924F925F926F927F92CB
:100320008F929F92AF92BF92CF92DF92EF92FF9205
:100330000F931F93CF93DF93CDB7DEB764970FB6BC
:10034000F894DEBF0FBECDBF1C017A8B698B5C8B2E
:100350004B8BC12CD12C812C912C5401412C512C34
:1003600032011D861E861F86188A42C09E012F5F9D
:100370003F4F79018E010D5F1F4F2C5F3F4FAE0144
:10038000495F5F4FBE01675F7F4FCE010B960E94B2
:1003900014018D819E81092E000CAA0BBB0B2D85AB
:1003A0003E854F855889280F391F4A1F5B1F2D87AF
:1003B0003E874F87588B8B819C81092E000CAA0B9E
:1003C000BB0B480E591E6A1E7B1E89819A81092E1D
:1003D000000CAA0BBB0B880E991EAA1EBB1E8FE930
:1003E0009FE00197F1F700C000009FEFC91AD90AFA
:1003F000E8EECE16E3E0DE060CF4B8CF0F2EF8EEF2
:10040000CF2EF3E0DF2EE12CF12CF02D6D857E85D3
:100410008F859889A70196010E94F006F10131832A
:100420002083C301B201A70196010E94F006E98969
:10043000FA8931832083C501B401A70196010E9486
:10044000F006EB89FC893183208364960FB6F8941B
:10045000DEBF0FBECDBFDF91CF911F910F91FF90F7
:10046000EF90DF90CF90BF90AF909F908F907F9054
:100470006F905F904F903F902F9008958AB188665B
:100480008AB984B18E6084B984B5836884BD85B52A
:10049000826085BDE0EBF0E0808183628083E1EBE8
:1004A000F0E0808182608083089587BD6093B4000E
:1004B0000895882369F08BB180648BB98BB18F7DEF
:1004C0008BB985B1826085B985B18B7F85B9089577
:1004D0008BB18F7B8BB98BB180628BB985B18D7FEE
:1004E00085B985B1846085B908954F925F926F9206
:1004F0007F928F929F92AF92BF92CF92DF92EF92B4
:10050000FF920F931F93CF93DF93E80187010E941F
:10051000F7036B017C012AE037ED43E25CE30E94C4
:100520003906F80120813181428153810E94F8030C
:100530004B015C01F801608371838283938328817E
:1005400039814A815B81C701B6010E94F7032AE025
:1005500037ED43E25CE30E94D6042B013C0120E02E
:1005600030E0A901C501B4010E9439069B01AC012C
:10057000C701B6010E94F8034B015C0120E030E0A6
:10058000A901C301B2010E9439069B01AC01C5015A
:10059000B4010E94F803C882D982EA82FB82DF910B
:1005A000CF911F910F91FF90EF90DF90CF90BF9070
:1005B000AF909F908F907F906F905F904F90089535
:1005C000CF93DF93CDB7DEB762970FB6F894DEBF57
:1005D0000FBECDBF1E861D86188A1F861A8A198AED
:1005E0000E945F000E94DC00AE014F5E5F4FBE01C3
:1005F000615F7F4FCE010D960E948A010E943E02EC
:1006000060E875E280E090E00E94C3036FEF8FEF37
:100610000E94550281E00E945902812C912C5401C4
:10062000CE010B967C018E01075F1F4F9E01295F53
:100630003F4FAE014B5F5F4FBE016D5F7F4F0A972B
:100640000E9414016F8178858D859E85681B790BCA
:1006500078876F8389859A852F853889821B930BCC
:100660009A8789878B859C8529893A89821B930B78
:100670009C878B87072E000C880B990B0E947905AD
:1006800020E030E043E053E40E94D6042AE037ED56
:1006900043E25CE30E9439069B01AC01C501B40151
:1006A0000E94F80328E431EE4AE75FE30E9439062E
:1006B0006B017C016D817E81072E000C880B990BEC
:1006C0000E9479054B015C016B817C81072E000C37
:1006D000880B990B0E947905A50194010E9477046B
:1006E00020E030E044E353E40E9439062BED3FE084
:1006F00049E450E40E94D6042AE037ED43EA5CE383
:100700000E9439069B01AC01C701B6010E94F803A3
:100710004B015C010F2EF0E0EF2EF1E0FF2EF02DEB
:1007200004E011E09B01AC0160E070E0CB010E94AD
:1007300075026B017C0120E030E0A9010E942C06CB
:1007400018166CF481E00E945902C701B6010E949C
:10075000480588EC860F98EC961B692F0BC081E04A
:100760000E945902C701B60190580E94480588ECC2
:10077000861B68530E9455028FE39CE90197F1F7AD
:1007800000C000004DCFE1ECF0E020812861208323
:10079000E2ECF0E020812E602083DC01CB01880FA9
:1007A000991FAA1FBB1F880F991FAA1FBB1F9C015F
:1007B000AD01220F331F441F551F220F331F441F4B
:1007C000551F60E074E284EF90E00E94CE068FEF48
:1007D000820F8093C400DA01C9010197A109B10910
:1007E000892F9A2FAB2FBB278093C50008955058AF
:1007F000BB27AA270E940F040C94F2050E94E4056F
:1008000038F00E94EB0520F039F49F3F19F426F4EC
:100810000C94BA050EF4E095E7FB0C94B405E92FAF
:100820000E94030658F3BA176207730784079507F7
:1008300020F079F4A6F50C9425060EF4E0950B2E25
:10084000BA2FA02D0B01B90190010C01CA01A00122
:100850001124FF27591B99F0593F50F4503E68F17D
:100860001A16F040A22F232F342F4427585FF3CFBE
:10087000469537952795A795F0405395C9F77EF48F
:100880001F16BA0B620B730B840BBAF09150A1F0D8
:10089000FF0FBB1F661F771F881FC2F70EC0BA0F5E
:1008A000621F731F841F48F4879577956795B795E6
:1008B000F7959E3F08F0B0CF9395880F08F09927E1
:1008C000EE0F9795879508950E94E40560F080E803
:1008D00091E009F49EEF0E94EB0528F040E851E01A
:1008E00071F45EEF0CC00C94BA050C942506E92F48
:1008F000E0780E94030640F3092E052AB1F326177B
:1009000037074807590738F00E2E07F8E02569F039
:10091000E025E0640AC0EF6307F8009407FADB0102
:10092000B9019D01DC01CA01AD01EF930E94ED0404
:100930000E94F2050E94A7045F91552339F02BED28
:100940003FE049E450FD49EC0C94F8030895DF932F
:10095000DD27B92FBF7740E85FE316161706480773
:100960005B0718F4D92F0E9431069F938F937F93D2
:100970006F930E94A606E8E6F0E00E94BD050E9483
:10098000F2052F913F914F915F910E944C06DD231C
:1009900051F09058A2EA2AED3FE049EC5FE3D078AD
:1009A0005D270E940F04DF910C94F2050E94EA0477
:1009B0000C94F2050E94EB0558F00E94E40540F00B
:1009C00029F45F3F29F00C94B40551110C942606CC
:1009D0000C94BA050E94030668F39923B1F35523DA
:1009E00091F3951B550BBB27AA2762177307840742
:1009F00038F09F5F5F4F220F331F441FAA1FA9F3D8
:100A000035D00E2E3AF0E0E832D091505040E695C5
:100A1000001CCAF72BD0FE2F29D0660F771F881F26
:100A2000BB1F261737074807AB07B0E809F0BB0B19
:100A3000802DBF01FF2793585F4F3AF09E3F51052D
:100A400078F00C94B4050C9426065F3FE4F3983ECE
:100A5000D4F3869577956795B795F7959F5FC9F716
:100A6000880F911D9695879597F90895E1E0660F97
:100A7000771F881FBB1F621773078407BA0720F010
:100A8000621B730B840BBA0BEE1F88F7E095089579
:100A90000E940B0688F09F5798F0B92F9927B751FD
:100AA000B0F0E1F0660F771F881F991F1AF0BA9512
:100AB000C9F714C0B13091F00E942506B1E0089545
:100AC0000C942506672F782F8827B85F39F0B93F37
:100AD000CCF3869577956795B395D9F73EF49095C5
:100AE0008095709561957F4F8F4F9F4F0895E89443
:100AF00009C097FB3EF490958095709561957F4F66
:100B00008F4F9F4F9923A9F0F92F96E9BB27939513
:100B1000F695879577956795B795F111F8CFFAF423
:100B2000BB0F11F460FF1BC06F5F7F4F8F4F9F4F54
:100B300016C0882311F096E911C0772321F09EE8B2
:100B4000872F762F05C0662371F096E8862F70E018
:100B500060E02AF09A95660F771F881FDAF7880FF2
:100B60009695879597F9089597F99F6780E870E0C3
:100B700060E008959FEF80EC0895DF93CF931F937B
:100B80000F93FF92EF92DF927B018C01689406C075
:100B9000DA2EEF010E944C06FE01E894A591259102
:100BA000359145915591A6F3EF010E940F04FE0186
:100BB0009701A801DA9469F7DF90EF90FF900F9109
:100BC0001F91CF91DF91089500240A9416161706FD
:100BD00018060906089500240A941216130614062E
:100BE00005060895092E0394000C11F4882352F091
:100BF000BB0F40F4BF2B11F460FF04C06F5F7F4F49
:100C00008F4F9F4F089557FD9058440F551F59F02F
:100C10005F3F71F04795880F97FB991F61F09F3FE9
:100C200079F087950895121613061406551FF2CF12
:100C30004695F1DF08C0161617061806991FF1CF62
:100C400086957105610508940895E894BB27662789
:100C50007727CB0197F908950E94AA0608F48FEF31
:100C600008959B01AC0160E070E080E89FE30C9484
:100C7000D6040E944C060C94F2050E94E40538F05C
:100C80000E94EB0520F0952311F00C94B4050C9410
:100C9000BA0511240C9426060E94030670F3959F52
:100CA000C1F3950F50E0551F629FF001729FBB2763
:100CB000F00DB11D639FAA27F00DB11DAA1F649FFF
:100CC0006627B00DA11D661F829F2227B00DA11DB2
:100CD000621F739FB00DA11D621F839FA00D611D38
:100CE000221F749F3327A00D611D231F849F600D59
:100CF000211D822F762F6A2F11249F5750409AF082
:100D0000F1F088234AF0EE0FFF1FBB1F661F771F0D
:100D1000881F91505040A9F79E3F510580F00C94D8
:100D2000B4050C9426065F3FE4F3983ED4F3869511
:100D300077956795B795F795E7959F5FC1F7FE2B78
:100D4000880F911D9695879597F908959B01AC01A1
:100D50000C943906990F0008550FAA0BE0E8FEEF36
:100D600016161706E807F907C0F012161306E4076F
:100D7000F50798F0621B730B840B950B39F40A2668
:100D800061F0232B242B252B21F408950A2609F446
:100D9000A140A6958FEF811D811D0895A1E21A2E15
:100DA000AA1BBB1BFD010DC0AA1FBB1FEE1FFF1F0F
:100DB000A217B307E407F50720F0A21BB30BE40B5F
:100DC000F50B661F771F881F991F1A9469F76095A6
:100DD0007095809590959B01AC01BD01CF01089560
:100DE000052E97FB1EF400940E94070757FD07D0BD
:100DF0000E94CE0607FC03D04EF40C9407075095D2
:100E00004095309521953F4F4F4F5F4F08959095F6
:100E10008095709561957F4F8F4F9F4F0895F894FF
:020E2000FFCF02
:00000001FF
